:100000000C9462000C948A000C948A000C948A0070
:100010000C948A000C948A000C948A000C948A0038
:100020000C948A000C948A000C948A000C948A0028
:100030000C948A000C948A000C948A000C948A0018
:100040000C9411020C948A000C9481020C945B02B3
:100050000C948A000C948A000C948A000C948A00F8
:100060000C948A000C948A000000000024002700F1
:100070002A0000000000250028002B0000000008D6
:10008000000201000003040700000000000000005F
:1000900000000000230026002900040404040404D6
:1000A0000404020202020202030303030303010227
:1000B00004081020408001020408102001020408F6
:1000C0001020B30211241FBECFEFD8E0DEBFCDBF9A
:1000D00011E0A0E0B1E0EAE6FFE002C005900D9279
:1000E000A231B107D9F721E0A2E1B1E001C01D9230
:1000F000A63DB207E1F710E0C2E6D0E004C02197C8
:10010000FE010E94A807C136D107C9F70E94A903C2
:100110000C94B3070C940000CF93DF9390E0FC01A4
:10012000E255FF4F2491FC01E656FF4F849188234E
:1001300061F190E0880F991FFC01E859FF4FC591CC
:10014000D491FC01EE58FF4FA591B491611109C003
:100150009FB7F8948881209582238883EC912E2381
:100160000BC0623061F49FB7F8948881322F3095CC
:1001700083238883EC912E2B2C939FBF06C08FB7CF
:10018000F894E8812E2B28838FBFDF91CF910895BB
:100190003FB7F8948091130190911401A09115013B
:1001A000B091160126B5A89B05C02F3F19F0019606
:1001B000A11DB11D3FBFBA2FA92F982F8827820FED
:1001C000911DA11DB11DBC01CD0142E0660F771F3D
:1001D000881F991F4A95D1F70895CF92DF92EF9229
:1001E000FF920F931F93CF93DF936C017A018B01E2
:1001F000C0E0D0E0CE15DF0581F0D8016D918D0112
:10020000D601ED91FC910190F081E02DC601099598
:10021000892B11F02196EECF7E01C701DF91CF919E
:100220001F910F91FF90EF90DF90CF900895089568
:1002300080E090E00895FC01538D448D252F30E03F
:10024000842F90E0821B930B541710F0CF960895E3
:1002500001970895FC01918D828D981761F0828D30
:10026000DF01A80FB11D5D968C91928D9F5F9F73EA
:10027000928F90E008958FEF9FEF0895FC01918D8C
:10028000828D981731F0828DE80FF11D858D90E0F9
:1002900008958FEF9FEF0895FC01918D228D892F96
:1002A00090E0805C9F4F821B91098F73992708957E
:1002B00087E191E00E944C0121E0892B09F420E0C4
:1002C000822F0895FC01848DDF01A80FB11DA35A70
:1002D000BF4F2C91848D90E001968F739927848F66
:1002E000A689B7892C93A089B1898C918370806489
:1002F0008C93938D848D981306C00288F389E02D2A
:1003000080818F7D80830895EF92FF920F931F93DA
:10031000CF93DF93EC0181E0888F9B8D8C8D9813B8
:1003200005C0E889F989808185FD26C0F62E0B8DF0
:1003300010E00F5F1F4F0F731127E02E8C8DE81216
:100340000CC00FB607FCFACFE889F989808185FFD8
:10035000F5CFCE010E946201F1CF8B8DFE01E80F37
:10036000F11DE35AFF4FF0829FB7F8940B8FEA8993
:10037000FB89808180620AC09FB7F894EE89FF896B
:100380006083E889F98980818370806480839FBF5E
:1003900081E090E0DF91CF911F910F91FF90EF905E
:1003A0000895CF93DF93EC01888D8823C9F0EA8903
:1003B000FB89808185FD05C0A889B9898C9186FD5E
:1003C0000FC00FB607FCF5CF808185FFF2CFA8895B
:1003D000B9898C9185FFEDCFCE010E946201E7CFF4
:1003E000DF91CF91089580E090E0892B29F00E9461
:1003F000580181110C9400000895009769F0FC01E8
:1004000001900020E9F73197AF01481B590BBC015F
:1004100087E191E00C94ED0080E090E008950E9467
:10042000AE071F920F920FB60F9211242F933F9396
:100430008F939F93AF93BF938091B4019091B50137
:10044000A091B601B091B7013091120123E0230FC2
:100450002D3720F40196A11DB11D05C026E8230FFC
:100460000296A11DB11D209312018093B4019093B7
:10047000B501A093B601B093B7018091130190919B
:100480001401A0911501B09116010196A11DB11D95
:100490008093130190931401A0931501B09316015A
:1004A000BF91AF919F918F913F912F910F900FBE70
:1004B0000F901F9018951F920F920FB60F92112454
:1004C0002F933F934F935F936F937F938F939F935C
:1004D000AF93BF93EF93FF9387E191E00E94620196
:1004E000FF91EF91BF91AF919F918F917F916F910C
:1004F0005F914F913F912F910F900FBE0F901F90E2
:1005000018951F920F920FB60F9211242F938F936D
:100510009F93EF93FF93E0912701F0912801808151
:10052000E0912D01F0912E0182FD12C09081809109
:1005300030018F5F8F7320913101821751F0E0916C
:100540003001F0E0E95EFE4F958F8093300101C0ED
:100550008081FF91EF919F918F912F910F900FBE0E
:100560000F901F90189510921A011092190188EEA1
:1005700093E0A0E0B0E080931B0190931C01A09356
:100580001D01B0931E0184E091E0909318018093C7
:10059000170185EC90E0909324018093230184EC73
:1005A00090E0909326018093250180EC90E0909359
:1005B00028018093270181EC90E090932A01809399
:1005C000290182EC90E090932C0180932B0186EC22
:1005D00090E090932E0180932D01109230011092A3
:1005E0003101109232011092330181E090E090933A
:1005F000B9018093B80186E391E09093BF018093A5
:10060000BE0180EE95E7A9E0B0E08093C001909331
:10061000C101A093C201B093C30180E29EE4A0E0B7
:10062000B0E08093C4019093C501A093C601B0933C
:10063000C70161E084E00E948C0060E082E00E94DB
:100640008C00E0E8F0E08491E2EBF0E09491EEE9D8
:10065000F0E0E491EE23B9F1882339F1833091F091
:1006600038F48130A9F0823001F584B58F7D12C055
:10067000873091F08830A1F08430B9F48091800007
:100680008F7D03C0809180008F77809380000DC0A4
:1006900084B58F7784BD09C08091B0008F7703C087
:1006A0008091B0008F7D8093B000F0E0EE0FFF1FCF
:1006B000EE58FF4FA591B4912FB7F8948C91909577
:1006C00098239C932FBFE2EBF0E0E491E093D001FC
:1006D000EEE9F0E0E491F0E0EE0FFF1FE057FF4F8E
:1006E000859194919093D2018093D101E0EBF0E059
:1006F000E491E093D301ECE9F0E0E491F0E0EE0F57
:10070000FF1FE057FF4F859194919093D5018093FF
:10071000D4018FEF9FEFAFEFBFE08093BA019093CA
:10072000BB01A093BC01B093BD012FB7F894809199
:10073000B4019091B501A091B601B091B7012FBF5E
:100740008093C8019093C901A093CA01B093CB01D3
:100750000895CF93DF93CDB7DEB7A1970FB6F89486
:10076000DEBF0FBECDBF789484B5826084BD84B5F2
:10077000816084BD85B5826085BD85B5816085BD9C
:1007800080916E00816080936E0010928100809154
:1007900081008260809381008091810081608093DC
:1007A0008100809180008160809380008091B10001
:1007B00084608093B1008091B00081608093B0002C
:1007C00080917A00846080937A0080917A008260C0
:1007D00080937A0080917A00816080937A00809182
:1007E0007A00806880937A001092C10061E08DE009
:1007F0000E948C00E0912701F091280182E0808323
:10080000E0912301F09124011082E0912501F09103
:1008100026018FEC808310922F01E0912B01F09143
:100820002C0186E08083E0912901F0912A018081EA
:1008300080618083E0912901F0912A0180818860A4
:100840008083E0912901F0912A0180818068808372
:10085000E0912901F0912A0180818F7D80838FEFC3
:100860009FEFDC018093C4019093C501A093C60162
:10087000B093C7013AE0432E512C612C712C03E256
:1008800010E01092CC011092CD011092CE01109286
:10089000CF018091B8019091B90197FD7FC02EE101
:1008A000F894E091D101F091D20192818091D00130
:1008B000809589238283E091D401F091D5019181C3
:1008C0008091D301809589238183E091D401F091B7
:1008D000D50192818091D301809589238283E09113
:1008E000D401F091D50191818091D301892B81832D
:1008F000E091D401F091D50192818091D30180954E
:1009000089238283C8010197F1F7E091D401F09126
:10091000D50191818091D301809589238183E091D4
:10092000D401F091D50192818091D30180958923E2
:100930008283E091D101F091D20192818091D00126
:10094000892B82837894E091D401F091D501F090C5
:10095000D3014091C0015091C1016091C2017091D9
:10096000C30130813F218091CC019091CD01A091B4
:10097000CE01B091CF01311136C084179507A6077B
:10098000B70788F50196A11DB11D8093CC01909306
:10099000CD01A093CE01B093CF01E3CFCC24CA9474
:1009A000DC2C76016DE287E191E00E948401222730
:1009B0003327A9012C193D094E095F0919A27E01AF
:1009C00081E2E80EF11CCA01B901A30192010E9463
:1009D0008607605DD7016E937D01211531054105C4
:1009E000510589F7CCC0481759076A077B0708F4F7
:1009F00035C1F894E091D401F091D50192818091B4
:100A0000D301892B8283E091D401F091D5019181AA
:100A10008091D301892B8183E091D401F091D5019C
:100A200092818091D301892B8283E091D401F0914E
:100A3000D50191818091D301809589238183E091B3
:100A4000D401F091D50192818091D30180958923C1
:100A50008283E091D101F091D20192818091D00105
:100A60008095892382837894E091D401F091D50117
:100A7000F090D3014091C0015091C1016091C20139
:100A80007091C30130813F218091CC019091CD01C3
:100A9000A091CE01B091CF0131119DC0841795076F
:100AA000A607B70708F0DAC0215009F0F9CE2FB732
:100AB000F8948091B4019091B501A091B601B091E4
:100AC000B7012FBF4091C8015091C9016091CA017F
:100AD0007091CB01841B950BA60BB70B4091C40101
:100AE0005091C5016091C6017091C701481759071F
:100AF0006A077B0708F481C04091CC015091CD0179
:100B00006091CE017091CF018091BA019091BB01AB
:100B1000A091BC01B091BD01481759076A077B0736
:100B200040F44093BA015093BB016093BC017093B1
:100B3000BD018091BA019091BB01A091BC01B0911F
:100B4000BD019A01AB01281B390B4A0B5B0B6901F4
:100B50007A0157FD27CF19A27E01B1E2EB0EF11CFD
:100B6000CA01B901A30192010E948607605DF701E5
:100B700062937F01211531054105510589F7C701B0
:100B80000E94FD010E94C8004B015C019AE0C92E41
:100B9000D12CE12CF12C0E94C800DC01CB0188197A
:100BA0009909AA09BB09883E9340A105B10598F3AC
:100BB000F1E0CF1AD108E108F10828EE820E23E017
:100BC000921EA11CB11CC114D104E104F10419F757
:100BD0000E94F30156CE84179507A607B70708F0C1
:100BE0005DCF0196A11DB11D8093CC019093CD01E5
:100BF000A093CE01B093CF0145CFC090CC01D0904F
:100C0000CD01E090CE01F090CF016091BA017091DA
:100C1000BB018091BC019091BD01C616D706E806C4
:100C2000F90629F0C61AD70AE80AF90A03C0C12C46
:100C3000D12C76010E948B062DEC3CEC4CEC5DE354
:100C40000E94F1060E945506CB01770FAA0BBB0B41
:100C5000C816D906EA06FB0640F04ECF8EEFC82E26
:100C6000DD24DA94ED2CFD2C9DCE8FEF9FEFAFEFBE
:100C7000BFE08093BA019093BB01A093BC01B093F5
:100C8000BD012FB7F8948091B4019091B501A09166
:100C9000B601B091B7012FBF8093C8019093C901ED
:100CA000A093CA01B093CB0127CF0E945C06689441
:100CB000B1110C94EB0608950E94D00688F09F575E
:100CC00098F0B92F9927B751B0F0E1F0660F771F70
:100CD000881F991F1AF0BA95C9F714C0B13091F066
:100CE0000E94EA06B1E008950C94EA06672F782F77
:100CF0008827B85F39F0B93FCCF38695779567952B
:100D0000B395D9F73EF490958095709561957F4F96
:100D10008F4F9F4F0895E89409C097FB3EF490953C
:100D20008095709561957F4F8F4F9F4F9923A9F0C4
:100D3000F92F96E9BB279395F69587957795679553
:100D4000B795F111F8CFFAF4BB0F11F460FF1BC097
:100D50006F5F7F4F8F4F9F4F16C0882311F096E92A
:100D600011C0772321F09EE8872F762F05C06623D8
:100D700071F096E8862F70E060E02AF09A95660F91
:100D8000771F881FDAF7880F9695879597F908954A
:100D900057FD9058440F551F59F05F3F71F047952C
:100DA000880F97FB991F61F09F3F79F08795089511
:100DB000121613061406551FF2CF4695F1DF08C030
:100DC000161617061806991FF1CF8695710561054D
:100DD00008940895E894BB2766277727CB0197F9F5
:100DE00008950E9404070C9475070E94670738F065
:100DF0000E946E0720F0952311F00C945E070C946E
:100E0000640711240C94EB060E94C80670F3959FAA
:100E1000C1F3950F50E0551F629FF001729FBB27F1
:100E2000F00DB11D639FAA27F00DB11DAA1F649F8D
:100E30006627B00DA11D661F829F2227B00DA11D40
:100E4000621F739FB00DA11D621F839FA00D611DC6
:100E5000221F749F3327A00D611D231F849F600DE7
:100E6000211D822F762F6A2F11249F5750409AF010
:100E7000F1F088234AF0EE0FFF1FBB1F661F771F9C
:100E8000881F91505040A9F79E3F510580F00C9467
:100E90005E070C94EB065F3FE4F3983ED4F386952F
:100EA00077956795B795F795E7959F5FC1F7FE2B07
:100EB000880F911D9695879597F9089597F99F67E3
:100EC00080E870E060E008959FEF80EC08950024D2
:100ED0000A941616170618060906089500240A949F
:100EE00012161306140605060895092E0394000C25
:100EF00011F4882352F0BB0F40F4BF2B11F460FFB4
:100F000004C06F5F7F4F8F4F9F4F0895A1E21A2E4D
:100F1000AA1BBB1BFD010DC0AA1FBB1FEE1FFF1F9D
:100F2000A217B307E407F50720F0A21BB30BE40BED
:100F3000F50B661F771F881F991F1A9469F7609534
:100F40007095809590959B01AC01BD01CF010895EE
:100F5000EE0FFF1F0590F491E02D099481E090E0E1
:0A0F6000F8940C94B307F894FFCF47
:100F6A00000000008401ED001B01D1014C012A019F
:020F7A003E0136
:00000001FF
